:020000040800F2
:1000000080230020110A0008C3090008C509000860
:10001000C7090008C9090008CB0900080000000052
:10002000000000000000000000000000CD090008F2
:10003000CF09000800000000D1090008D30900081A
:10004000210A0008250A0008290A00082D0A0008CC
:10005000310A0008350A0008390A00083D0A00087C
:10006000410A0008450A0008490A00084D0A00082C
:10007000510A0008550A0008590A00085D0A0008DC
:10008000610A0008650A0008690A00086D0A00088C
:10009000710A0008750A0008790A00087D0A00083C
:1000A000810A0008850A0008890A00088D0A0008EC
:1000B000910A0008950A0008990A00089D0A00089C
:1000C000A10A0008A50A0008A90A0008AD0A00084C
:1000D000B10A00087502000833030008B50A0008D9
:1000E000B90A0008BD0A0008C10A0008002140E062
:1000F00000BF00BF00BF00BF00BF00BF00BF00BF08
:1001000000BF00BF00BF00BF00BF00BF00BF00BFF7
:1001100000BF00BF00BF00BF00BF00BF00BF00BFE7
:1001200000BF00BF00BF00BF00BF00BF00BF00BFD7
:1001300000BF00BF00BF00BF00BF00BF00BF00BFC7
:1001400000BF00BF00BF00BF00BF00BF00BF00BFB7
:1001500000BF00BF00BF00BF00BF00BF00BF00BFA7
:1001600000BF00BF00BF00BF00BF00BF00BF00BF97
:10017000491C8142BCD3704780B50121042000F0A6
:1001800075F90121082000F071F9BDE80440012152
:10019000102000F06BB980B54FF480701821ADF8D5
:1001A00000008DF8031002228DF8022069467E4877
:1001B00000F082F9072000F06DF901BD38B510217B
:1001C0008DF8031002224FF480540EE077494FF46B
:1001D000805208B10A6070474A60704738B51021F4
:1001E0008DF8031002224FF400648DF80220ADF860
:1001F000004069466C4D284600F05EF92C6131BD27
:100200006A494FF4006208B10A6070474A6070475B
:1002100080B545F2555000F0A1F9042000F0A1F995
:10022000634800688002000C00F09EF900F09FF91E
:10023000BDE8014000F0A0B910B586B001214FF42F
:10024000804000F013F903218DF802104FF4007282
:1002500000F057F84FF4806100F04AF800F05BF8C6
:10026000544C204600F094F90121204600F0E0F9BA
:1002700025212DE070B54F4D00F06AF840B14E4C8D
:1002800000F06CF82068B0F57A7F04BF002121608F
:1002900070BD10B50146474C6CE010B586B0012129
:1002A0004FF4003000F0ECF803218DF80210042226
:1002B00000F027F8082100F01BF800F02CF83F4C64
:1002C000204600F065F90121204600F0B1F9262111
:1002D00001228DF804108DF8072001A800F000FA23
:1002E000012240F22551204600F0ACF906B010BDC5
:1002F000ADF8001004228DF803206946204600F076
:10030000DBB818218DF80310ADF800206946264CA3
:10031000204600F0D1B84FF496410291002203929A
:10032000ADF81020ADF814200C22ADF8122002A96F
:10033000704770B5214D00F00BF840B1204C00F033
:100340000DF82068B0F57A7F04BF0021216070BDF0
:1003500040F225563146284600F09BB9A88821680E
:1003600004EB8102314690602068401C20602846E2
:1003700000F0AEB9204600F081F98021204600F05F
:1003800081F90028F9D010BD10B50D4C60682168C6
:10039000814207D000F016F86068B0F57A7F04BF9C
:1003A0000021616010BD00000008014010080140FC
:1003B00000000020003801402C00002000440040D4
:1003C000D40F0020421C04EB800162608868C0B238
:1003D0005FE70EE002684368024408305FEAC37CCE
:1003E00044BF4B445B1E52F804CB43F804CB091FB7
:1003F000F9D150F8041B0029ECD1704770B527499A
:10040000274A0B6803F00C03082B09D10B680D6811
:10041000244CC3F383439B1C5C43ED0321D422464D
:1004200002600B68204A0468C3F30313D35CDC400A
:1004300044600B684468C3F30223D35CDC408460EF
:100440000B684468C3F3C223D35CDC40C460096812
:10045000C368C1F381311144097CB3FBF1F101613F
:1004600070BD0D68AE03DAD45A43D9E70F4A0029AC
:1004700019BF11680843136823EA00001060704731
:100480000B4A002919BF11680843136823EA0000CA
:100490001060704707490870704700000410024060
:1004A00000127A0000093D000400002018100240EC
:1004B0001C100240071002402DE9F041CA780026C6
:1004C00002F00F03D40644BF8A7813430A8801243C
:1004D0004FF00F08D7B2E7B1076804FA06FC0CEA40
:1004E0000205654511D14FEA860E08FA0EF5AF43B5
:1004F00003FA0EF52F43CD78282D08BFC0F814C09D
:1005000003D0482D08BFC0F810C0761C082EE4D3D5
:100510000760B2F5807F1FDB4768002606F10805FB
:1005200004FA05FC0CEA0205654511D14FEA860E76
:1005300008FA0EF5AF4303FA0EF52F43CD78282DB8
:1005400008BFC0F814C0CD78482D08BFC0F810C04F
:10055000761C082EE2D34760BDE8F08109490860A7
:1005600070470949086070470849086070470549A5
:100570004AF6AA200860704702494CF6CC40086051
:100580007047000000300040043000400830004058
:1005900030B5044685B00D46228AE8884CF6FF71D6
:1005A0000A40024322824EF6F311A289A8880A402B
:1005B0002989024368890A430243A2814FF6FF4119
:1005C000A28AA8890A400243A2826846FFF716FF62
:1005D00016492A688C420CBF039902991920A389F5
:1005E000A589414318044CBF52009200B1FBF2F1BF
:1005F0006422B1FBF2F2120113096FF0630000FBF9
:100600000311280407D5C90032316420B1FBF0F092
:1006100000F0070006E0090132316420B1FBF0F080
:1006200000F00F000243228105B030BD00380140C8
:1006300021B1818941F400518181704782894DF651
:10064000FF7118E010B50B065B0F012401F01F01CC
:10065000012B04FA01F108BF0C3003D0022B0CBFB0
:1006600010301430002A19BF02681143036823EACE
:100670000101016010BD0A4082817047C1F3080189
:10068000818070470246002012880A4218BF01206C
:10069000704770B502460C060020640F012601F079
:1006A0001F03012C06FA03F308BF948905D0022C1E
:1006B00002D1158A2B4001E0948A2340090A12884E
:1006C00006FA01F11140002B1CBF0029012070BD6A
:1006D0000122090A02FA01F189B2C9430180704777
:1006E000F0B50378C1781C460122D9B112490B68D4
:1006F0004578867803F4E063C3F5E0631B0A0F27AF
:10070000C3F10401DF408D403E4035430B490C4BA3
:100710002D010D55017801F01F008240490943F871
:100720002120F0BD03F01F03064802FA03F3640919
:1007300040F82430F0BD00000CED00E000E400E0E3
:1007400000E100E080E100E01CB5354A3549106861
:1007500040F001001060536833480B4053600023A1
:10076000146804401460116821F4802111604FF472
:100770001F01506820F4FE005060916000930193C7
:10078000136843F480331360106800F40030019064
:100790000098401C0090019818B90098B0F5A06F1F
:1007A000F2D11068400C00F001000190019801287E
:1007B00030D11E48016841F01001016003689B08B8
:1007C0009B000360016841F00201016050685060C5
:1007D00051685160506840F480605060506820F467
:1007E0007C105060506840F4E8105060116841F08F
:1007F0008071116010688101FCD55068800880000C
:100800005060506840F002005060506800F00C00EA
:100810000828FAD14FF000600549086013BD0000B8
:10082000001002400000FFF8FFFFF6FE002002402B
:1008300008ED00E010B542F210740120FFF756FCFD
:10084000641EFAD1FFF798FCFFF7A5FCFFF7B6FC92
:10085000FFF7C4FCFFF7F0FCFFF71FFD204801681D
:100860004FF47A72B1FBF2F0401EB0F1807F15D2E6
:100870001C491D4A48600023F02010708B6007203F
:1008800008600020FFF7A2FC0020FFF7B9FCFFF78B
:10089000BFFC0120FFF79AFC01240DE0FEE7FFF703
:1008A00073FD032408E00020FFF790FC042403E01C
:1008B0000020FFF7A5FC0024FFF759FE042CFBD80D
:1008C000DFE804F0070806050400F5E7F0E7EAE7CB
:1008D000E5E7DEE70120FFF793FC0224ECE700BF29
:1008E0002800002010E000E023ED00E030B40025F7
:1008F00012E050F8042BD30744BF4A44521E091F8C
:10090000042942F8045BFAD213468C0744BF1580D1
:100910009B1CC90748BF1D7050F8041B0029E8D173
:1009200030BC7047409C000000000000010203043E
:10093000010203040607080902040608000000007B
:1009400000000000010203040607080900A24A048F
:1009500010B5074979441831064C7C44163404E03C
:100960000A68081D114488470146A142F8D110BD0C
:10097000080000002800000075FFFFFF501F000066
:100980002C000020000000004BFAFFFF2C000000AC
:1009900094FFFFFF000000200000000000F00DF8B1
:1009A000002801D0FFF7D4FFAFF300800020AFF3A1
:1009B0000080FFF73FFF00F002F80120704700F0D1
:1009C00009B87047FEE7FEE7FEE7FEE770477047AD
:1009D000704770470746384600F002F8FBE7000012
:1009E00080B5AFF30080024A11001820ABBEFBE7D0
:1009F000260002000548014603B4684680F30988D2
:100A0000AFF30080AFF30080FFF7C8FFA5EDF5FE60
:100A1000014880470148004749070008F5090008D8
:100A2000FFF7FEBFFFF7FEBFFFF7FEBFFFF7FEBFFA
:100A3000FFF7FEBFFFF7FEBFFFF7FEBFFFF7FEBFEA
:100A4000FFF7FEBFFFF7FEBFFFF7FEBFFFF7FEBFDA
:100A5000FFF7FEBFFFF7FEBFFFF7FEBFFFF7FEBFCA
:100A6000FFF7FEBFFFF7FEBFFFF7FEBFFFF7FEBFBA
:100A7000FFF7FEBFFFF7FEBFFFF7FEBFFFF7FEBFAA
:100A8000FFF7FEBFFFF7FEBFFFF7FEBFFFF7FEBF9A
:100A9000FFF7FEBFFFF7FEBFFFF7FEBFFFF7FEBF8A
:100AA000FFF7FEBFFFF7FEBFFFF7FEBFFFF7FEBF7A
:100AB000FFF7FEBFFFF7FEBFFFF7FEBFFFF7FEBF6A
:040AC000FFF7FEBF7F
:04000005080009F5F1
:00000001FF
